{
  "address": "0x07Aa877c9346cDC315D275C84f5B313A6b8fC92a",
  "abi": [
    {
      "anonymous": false,
      "inputs": [
        {
          "indexed": true,
          "internalType": "uint256",
          "name": "commitmentId",
          "type": "uint256"
        },
        {
          "indexed": false,
          "internalType": "address[]",
          "name": "completedParticipants",
          "type": "address[]"
        },
        {
          "indexed": false,
          "internalType": "uint256",
          "name": "rewardPerParticipant",
          "type": "uint256"
        }
      ],
      "name": "CommitmentCompleted",
      "type": "event"
    },
    {
      "anonymous": false,
      "inputs": [
        {
          "indexed": true,
          "internalType": "uint256",
          "name": "commitmentId",
          "type": "uint256"
        },
        {
          "indexed": false,
          "internalType": "address",
          "name": "creator",
          "type": "address"
        },
        {
          "indexed": false,
          "internalType": "string",
          "name": "description",
          "type": "string"
        },
        {
          "indexed": false,
          "internalType": "uint256",
          "name": "stakeAmount",
          "type": "uint256"
        },
        {
          "indexed": false,
          "internalType": "uint256",
          "name": "endDate",
          "type": "uint256"
        },
        {
          "indexed": false,
          "internalType": "uint256",
          "name": "proofFrequency",
          "type": "uint256"
        },
        {
          "indexed": false,
          "internalType": "bool",
          "name": "isGroupCommitment",
          "type": "bool"
        }
      ],
      "name": "CommitmentCreated",
      "type": "event"
    },
    {
      "anonymous": false,
      "inputs": [
        {
          "indexed": true,
          "internalType": "uint256",
          "name": "commitmentId",
          "type": "uint256"
        },
        {
          "indexed": false,
          "internalType": "uint256",
          "name": "dustAmount",
          "type": "uint256"
        }
      ],
      "name": "DustSentToCreator",
      "type": "event"
    },
    {
      "anonymous": false,
      "inputs": [
        {
          "indexed": true,
          "internalType": "uint256",
          "name": "commitmentId",
          "type": "uint256"
        },
        {
          "indexed": false,
          "internalType": "address",
          "name": "participant",
          "type": "address"
        }
      ],
      "name": "ParticipantJoined",
      "type": "event"
    },
    {
      "inputs": [],
      "name": "commitmentCounter",
      "outputs": [
        {
          "internalType": "uint256",
          "name": "",
          "type": "uint256"
        }
      ],
      "stateMutability": "view",
      "type": "function"
    },
    {
      "inputs": [
        {
          "internalType": "uint256",
          "name": "",
          "type": "uint256"
        }
      ],
      "name": "commitments",
      "outputs": [
        {
          "internalType": "address",
          "name": "creator",
          "type": "address"
        },
        {
          "internalType": "string",
          "name": "description",
          "type": "string"
        },
        {
          "internalType": "uint256",
          "name": "stakeAmount",
          "type": "uint256"
        },
        {
          "internalType": "uint256",
          "name": "endDate",
          "type": "uint256"
        },
        {
          "internalType": "bool",
          "name": "isGroupCommitment",
          "type": "bool"
        },
        {
          "internalType": "uint256",
          "name": "proofFrequency",
          "type": "uint256"
        },
        {
          "internalType": "bool",
          "name": "isCompleted",
          "type": "bool"
        }
      ],
      "stateMutability": "view",
      "type": "function"
    },
    {
      "inputs": [
        {
          "internalType": "uint256",
          "name": "_commitmentId",
          "type": "uint256"
        },
        {
          "internalType": "address[]",
          "name": "_completedParticipants",
          "type": "address[]"
        }
      ],
      "name": "completeCommitment",
      "outputs": [],
      "stateMutability": "nonpayable",
      "type": "function"
    },
    {
      "inputs": [
        {
          "internalType": "string",
          "name": "_description",
          "type": "string"
        },
        {
          "internalType": "uint256",
          "name": "_stakeAmount",
          "type": "uint256"
        },
        {
          "internalType": "uint256",
          "name": "_endDate",
          "type": "uint256"
        },
        {
          "internalType": "uint256",
          "name": "proofFrequency",
          "type": "uint256"
        },
        {
          "internalType": "bool",
          "name": "_isGroupCommitment",
          "type": "bool"
        }
      ],
      "name": "createCommitment",
      "outputs": [],
      "stateMutability": "payable",
      "type": "function"
    },
    {
      "inputs": [
        {
          "internalType": "uint256",
          "name": "_commitmentId",
          "type": "uint256"
        }
      ],
      "name": "getParticipants",
      "outputs": [
        {
          "internalType": "address[]",
          "name": "",
          "type": "address[]"
        }
      ],
      "stateMutability": "view",
      "type": "function"
    },
    {
      "inputs": [
        {
          "internalType": "uint256",
          "name": "_commitmentId",
          "type": "uint256"
        }
      ],
      "name": "joinCommitment",
      "outputs": [],
      "stateMutability": "payable",
      "type": "function"
    }
  ],
  "transactionHash": "0x50547733720898002961133d2bd937f9aba3f4427bf03ce8cee57e9b37b4b025",
  "args": [],
  "numDeployments": 1,
  "solcInputHash": "8aa5311da04e9697da8e32696a13f6a6",
  "bytecode": "0x608060405234801561001057600080fd5b5061108c806100206000396000f3fe6080604052600436106100555760003560e01c80630691a5f91461005a57806323e281cf1461006f57806349ce8997146100985780635b227f5f146100cb578063c1e3bd3e146100de578063dceceefa1461010b575b600080fd5b61006d610068366004610b13565b61012b565b005b34801561007b57600080fd5b5061008560015481565b6040519081526020015b60405180910390f35b3480156100a457600080fd5b506100b86100b3366004610b13565b610376565b60405161008f9796959493929190610b72565b61006d6100d9366004610c1e565b61044a565b3480156100ea57600080fd5b506100fe6100f9366004610b13565b6106c2565b60405161008f9190610d24565b34801561011757600080fd5b5061006d610126366004610d3e565b61072f565b6000818152602081905260409020600481015460ff166101925760405162461bcd60e51b815260206004820152601e60248201527f54686973206973206e6f7420612067726f757020636f6d6d69746d656e74000060448201526064015b60405180910390fd5b600681015460ff16156101e75760405162461bcd60e51b815260206004820152601f60248201527f436f6d6d69746d656e7420697320616c726561647920636f6d706c65746564006044820152606401610189565b8060030154421061023a5760405162461bcd60e51b815260206004820152601b60248201527f436f6d6d69746d656e7420706572696f642068617320656e64656400000000006044820152606401610189565b806002015434146102865760405162461bcd60e51b8152602060048201526016602482015275125b98dbdc9c9958dd081cdd185ad948185b5bdd5b9d60521b6044820152606401610189565b33600090815260088201602052604090205460ff16156102f85760405162461bcd60e51b815260206004820152602760248201527f596f75206861766520616c7265616479206a6f696e6564207468697320636f6d6044820152661b5a5d1b595b9d60ca1b6064820152608401610189565b600781018054600180820183556000928352602080842090920180546001600160a01b03191633908117909155808452600885018352604093849020805460ff1916909217909155915191825283917f7dd8cb04159701bc1976c246434d7d96812782e7489e6c5c34db49a388fe9e80910160405180910390a25050565b600060208190529081526040902080546001820180546001600160a01b0390921692916103a290610e09565b80601f01602080910402602001604051908101604052809291908181526020018280546103ce90610e09565b801561041b5780601f106103f05761010080835404028352916020019161041b565b820191906000526020600020905b8154815290600101906020018083116103fe57829003601f168201915b50505060028401546003850154600486015460058701546006909701549596929591945060ff90811693501687565b8334146104a85760405162461bcd60e51b815260206004820152602660248201527f5374616b6520616d6f756e74206d757374206d61746368207468652073656e746044820152652076616c756560d01b6064820152608401610189565b4283116104f75760405162461bcd60e51b815260206004820152601e60248201527f456e642064617465206d75737420626520696e207468652066757475726500006044820152606401610189565b600084116105565760405162461bcd60e51b815260206004820152602660248201527f5374616b6520616d6f756e74206d7573742062652067726561746572207468616044820152656e207a65726f60d01b6064820152608401610189565b600082116105b85760405162461bcd60e51b815260206004820152602960248201527f50726f6f66206672657175656e6379206d7573742062652067726561746572206044820152687468616e207a65726f60b81b6064820152608401610189565b60018054600091826105c983610e59565b90915550600081815260208190526040902080546001600160a01b03191633178155909150600181016105fc8882610ec1565b50600281018690556003810185815560048201805485151560ff199182161790915560068301805482169055600783018054600181810183556000928352602080842090920180546001600160a01b0319163390811790915580845260088701909252604092839020805490941617909255600584018790559154915184927f10bd61f69c9279e7e296b8a2240ab9d701f89f19d5cad94de2ea83c9b42e0ea6926106b19290918c918c91908b908b90610f81565b60405180910390a250505050505050565b6000818152602081815260409182902060070180548351818402810184019094528084526060939283018282801561072357602002820191906000526020600020905b81546001600160a01b03168152600190910190602001808311610705575b50505050509050919050565b600082815260208190526040902080546001600160a01b031633146107ab5760405162461bcd60e51b815260206004820152602c60248201527f4f6e6c79207468652063726561746f722063616e20636f6d706c65746520746860448201526b194818dbdb5b5a5d1b595b9d60a21b6064820152608401610189565b600681015460ff16156108005760405162461bcd60e51b815260206004820152601f60248201527f436f6d6d69746d656e7420697320616c726561647920636f6d706c65746564006044820152606401610189565b80600301544210156108605760405162461bcd60e51b815260206004820152602360248201527f436f6d6d69746d656e7420706572696f6420686173206e6f7420656e646564206044820152621e595d60ea1b6064820152608401610189565b6007810154600282015460009161087691610fcc565b905060008351826108879190610fe9565b905060008451826108989190610fcc565b905060006108a6828561100b565b905060005b86518110156109f5578560080160008883815181106108cc576108cc61101e565b6020908102919091018101516001600160a01b031682528101919091526040016000205460ff166109355760405162461bcd60e51b8152602060048201526013602482015272125b9d985b1a59081c185c9d1a58da5c185b9d606a1b6044820152606401610189565b60008782815181106109495761094961101e565b60200260200101516001600160a01b03168560405160006040518083038185875af1925050503d806000811461099b576040519150601f19603f3d011682016040523d82523d6000602084013e6109a0565b606091505b50509050806109e25760405162461bcd60e51b815260206004820152600e60248201526d14185e5b595b9d0819985a5b195960921b6044820152606401610189565b50806109ed81610e59565b9150506108ab565b508015610ad05784546040516000916001600160a01b03169083908381818185875af1925050503d8060008114610a48576040519150601f19603f3d011682016040523d82523d6000602084013e610a4d565b606091505b5050905080610a945760405162461bcd60e51b8152602060048201526013602482015272111d5cdd081c185e5b595b9d0819985a5b1959606a1b6044820152606401610189565b877fb002294e7f6db9c78bb6cc16aa5e8be60b37977fc8f219aee36e7b9feebc55c183604051610ac691815260200190565b60405180910390a2505b60068501805460ff1916600117905560405187907f1f693aa8963b435e303c1524331f15450af87102da78335959c53bc46bdf7238906106b19089908790611034565b600060208284031215610b2557600080fd5b5035919050565b6000815180845260005b81811015610b5257602081850181015186830182015201610b36565b506000602082860101526020601f19601f83011685010191505092915050565b6001600160a01b038816815260e060208201819052600090610b9690830189610b2c565b6040830197909752506060810194909452911515608084015260a0830152151560c09091015292915050565b634e487b7160e01b600052604160045260246000fd5b604051601f8201601f1916810167ffffffffffffffff81118282101715610c0157610c01610bc2565b604052919050565b80358015158114610c1957600080fd5b919050565b600080600080600060a08688031215610c3657600080fd5b853567ffffffffffffffff80821115610c4e57600080fd5b818801915088601f830112610c6257600080fd5b8135602082821115610c7657610c76610bc2565b610c88601f8301601f19168201610bd8565b92508183528a81838601011115610c9e57600080fd5b818185018285013760009183018101919091529096508701359450506040860135925060608601359150610cd460808701610c09565b90509295509295909350565b600081518084526020808501945080840160005b83811015610d195781516001600160a01b031687529582019590820190600101610cf4565b509495945050505050565b602081526000610d376020830184610ce0565b9392505050565b60008060408385031215610d5157600080fd5b8235915060208084013567ffffffffffffffff80821115610d7157600080fd5b818601915086601f830112610d8557600080fd5b813581811115610d9757610d97610bc2565b8060051b9150610da8848301610bd8565b8181529183018401918481019089841115610dc257600080fd5b938501935b83851015610df957843592506001600160a01b0383168314610de95760008081fd5b8282529385019390850190610dc7565b8096505050505050509250929050565b600181811c90821680610e1d57607f821691505b602082108103610e3d57634e487b7160e01b600052602260045260246000fd5b50919050565b634e487b7160e01b600052601160045260246000fd5b600060018201610e6b57610e6b610e43565b5060010190565b601f821115610ebc57600081815260208120601f850160051c81016020861015610e995750805b601f850160051c820191505b81811015610eb857828155600101610ea5565b5050505b505050565b815167ffffffffffffffff811115610edb57610edb610bc2565b610eef81610ee98454610e09565b84610e72565b602080601f831160018114610f245760008415610f0c5750858301515b600019600386901b1c1916600185901b178555610eb8565b600085815260208120601f198616915b82811015610f5357888601518255948401946001909101908401610f34565b5085821015610f715787850151600019600388901b60f8161c191681555b5050505050600190811b01905550565b6001600160a01b038716815260c060208201819052600090610fa590830188610b2c565b905085604083015284606083015283608083015282151560a0830152979650505050505050565b8082028115828204841417610fe357610fe3610e43565b92915050565b60008261100657634e487b7160e01b600052601260045260246000fd5b500490565b81810381811115610fe357610fe3610e43565b634e487b7160e01b600052603260045260246000fd5b6040815260006110476040830185610ce0565b9050826020830152939250505056fea26469706673582212200c04e9f6f322eb5839a2c3eef5295a5c7fd63e5ce5219316b1360215eb9167c964736f6c63430008140033",
  "devdoc": {
    "kind": "dev",
    "methods": {},
    "version": 1
  },
  "userdoc": {
    "kind": "user",
    "methods": {},
    "version": 1
  },
  "storageLayout": {
    "storage": [
      {
        "astId": 28,
        "contract": "contracts/CommitmentContract.sol:CommitmentContract",
        "label": "commitments",
        "offset": 0,
        "slot": "0",
        "type": "t_mapping(t_uint256,t_struct(Commitment)23_storage)"
      },
      {
        "astId": 30,
        "contract": "contracts/CommitmentContract.sol:CommitmentContract",
        "label": "commitmentCounter",
        "offset": 0,
        "slot": "1",
        "type": "t_uint256"
      }
    ],
    "types": {
      "t_address": {
        "encoding": "inplace",
        "label": "address",
        "numberOfBytes": "20"
      },
      "t_array(t_address)dyn_storage": {
        "base": "t_address",
        "encoding": "dynamic_array",
        "label": "address[]",
        "numberOfBytes": "32"
      },
      "t_bool": {
        "encoding": "inplace",
        "label": "bool",
        "numberOfBytes": "1"
      },
      "t_mapping(t_address,t_bool)": {
        "encoding": "mapping",
        "key": "t_address",
        "label": "mapping(address => bool)",
        "numberOfBytes": "32",
        "value": "t_bool"
      },
      "t_mapping(t_uint256,t_struct(Commitment)23_storage)": {
        "encoding": "mapping",
        "key": "t_uint256",
        "label": "mapping(uint256 => struct CommitmentContract.Commitment)",
        "numberOfBytes": "32",
        "value": "t_struct(Commitment)23_storage"
      },
      "t_string_storage": {
        "encoding": "bytes",
        "label": "string",
        "numberOfBytes": "32"
      },
      "t_struct(Commitment)23_storage": {
        "encoding": "inplace",
        "label": "struct CommitmentContract.Commitment",
        "members": [
          {
            "astId": 3,
            "contract": "contracts/CommitmentContract.sol:CommitmentContract",
            "label": "creator",
            "offset": 0,
            "slot": "0",
            "type": "t_address"
          },
          {
            "astId": 5,
            "contract": "contracts/CommitmentContract.sol:CommitmentContract",
            "label": "description",
            "offset": 0,
            "slot": "1",
            "type": "t_string_storage"
          },
          {
            "astId": 7,
            "contract": "contracts/CommitmentContract.sol:CommitmentContract",
            "label": "stakeAmount",
            "offset": 0,
            "slot": "2",
            "type": "t_uint256"
          },
          {
            "astId": 9,
            "contract": "contracts/CommitmentContract.sol:CommitmentContract",
            "label": "endDate",
            "offset": 0,
            "slot": "3",
            "type": "t_uint256"
          },
          {
            "astId": 11,
            "contract": "contracts/CommitmentContract.sol:CommitmentContract",
            "label": "isGroupCommitment",
            "offset": 0,
            "slot": "4",
            "type": "t_bool"
          },
          {
            "astId": 13,
            "contract": "contracts/CommitmentContract.sol:CommitmentContract",
            "label": "proofFrequency",
            "offset": 0,
            "slot": "5",
            "type": "t_uint256"
          },
          {
            "astId": 15,
            "contract": "contracts/CommitmentContract.sol:CommitmentContract",
            "label": "isCompleted",
            "offset": 0,
            "slot": "6",
            "type": "t_bool"
          },
          {
            "astId": 18,
            "contract": "contracts/CommitmentContract.sol:CommitmentContract",
            "label": "participants",
            "offset": 0,
            "slot": "7",
            "type": "t_array(t_address)dyn_storage"
          },
          {
            "astId": 22,
            "contract": "contracts/CommitmentContract.sol:CommitmentContract",
            "label": "hasParticipated",
            "offset": 0,
            "slot": "8",
            "type": "t_mapping(t_address,t_bool)"
          }
        ],
        "numberOfBytes": "288"
      },
      "t_uint256": {
        "encoding": "inplace",
        "label": "uint256",
        "numberOfBytes": "32"
      }
    }
  }
}